:1000000000000000000000000000000000000000F0
:1000100000000000000000000000000000000000E0
:1000200000000000000000000000000000000000D0
:1000300000000000000000000000000F1020141459
:10004000141415153F0000000000382D112D00007C
:1000500000000000000000000000000000000000A0
:100060000000000000000000000000000000000090
:100070000000000000000000000000000000003050
:10008000250A3B343B250E3A342D000B18340C3C2A
:100090002A083E2C102A2E202B3F2B3E2B3C2B3F98
:1000A0002B3F2B3F2A3F2A382B3F2B3F2B282F2F2C
:1000B0002B2F2B102F2F2F2F2F2F2F2F2F00383894
:1000C000383838383818080B3E183B180839393991
:1000D00008182A003A080B3E2F08132F3B3C3A1809
:1000E0002A080B3E2B3A2B10382A233C182B232AA4
:1000F0000318080308182B003F00003F0404040203
:10010000272F183A182F272F2734081C10382A2F8A
:10011000003A080B182C2A2A2A2A270C08272E27EF
:100120000B08272E082727340C272E270F08272EE9
:1001300000000000000000000000000000000000BF
:1001400000000000000000000000000000000000AF
:10015000000000000000000000000000000000009F
:10016000000000000000000000000000000000008F
:10017000000000000000000012060607041202033F
:1001800000342E340C39390C08340839033C2A1851
:100190002A08183E180838083E2A0838083E2A0857
:1001A0001827270B180B183B1834122E00180B18A1
:1001B0000B183408031C08393818102A2E00180AA6
:1001C0001A0B2A000F03180F3803180B180B1813FB
:1001D0002F3A0C0B3D2B0B3C0B0B3C0B0B3C0B0B36
:1001E0002B0B3D0B0B18082D000000000000013FF9
:1001F0003F003F3F3F3F00013E003F000004023C04
:10020000190B18191818092F25113C2D1818180842
:10021000093D2A0B3E2A090B3F2B082510081C110B
:100220002A0B3C2A1C0B2510250F0925100B251025
:10023000250A2A0B3C2A0B2510250F2A0B3C2B09DB
:100240003E2A250F250F250F2B0B3C2B0B3C2B0B90
:100250003E2A0B2510250F1C0B183A2D250A3A09AA
:10026000192A250F2A0000000000000000000000ED
:100270000000003F003F00003F1E00003E3E101EF9
:1002800025073A08093E2A082D2507250A3E2C2D68
:1002900025073A08093E2C2D3A08182D3A18250A48
:1002A0003C2D250A3C2C0938182507250A3C2F0926
:1002B00008182D390B3D2A0B2D0B3D380B2D180C32
:1002C0003C2B38083E2B102A0C182C250C08182D16
:1002D000250B081808182D250B081808182D250BB4
:1002E000250A0B3E2B250B0818081827383E2D240D
:1002F0002F08180818392D0000133F013F013E0A4E
:100300003A08012A3A0838380118250C3A080B3FF8
:100310002D083801182D3A1818250A0B3D2A0B3FD5
:100320002A08391808393908080B181025072A3AFD
:10033000083E2C2D3A1818250A0B3D2B0B3F2B0895
:100340001808383803080B181025072A3A083E2CDD
:100350002D0B180C232D2B00180838232F08232FC2
:10036000132F00030B3C2F0B2510132F0000000050
:1003700000000000000000013F003F3F3F3F3F3FC3
:100380000B183B18102A3B183B08180C0338393C53
:100390000C0338393D2A0C033C2D25102A18180867
:1003A000390B3C2A102A0B253A083C2A250E252B0E
:1003B0003A08250E08250E250F2B3838012B180B6F
:1003C00018083938180838180801250F102B2D2562
:1003D0000E2B250E2C3A0B2F3A0B2F3A0B2F3A0BE4
:1003E0002F3A0B2F0B2F3A0B25100B2F3A0B2F0008
:1003F000000000000000000010003F003F013C3FF3
:10040000003A340E250D122E0B18340C3C2D2510FD
:100410002A3C2D093D2A0B3C2A2F0B3C2A0B2A256E
:100420003A0B2510250B2A0B2525113A083E2A08E0
:100430003E2A252A253A2D1818302A08303A2D1040
:100440002A2A2738302D30033C2D0B3C2B18180B53
:1004500025102C0B3C2B180B2510250F0838182DB8
:100460000B3C2B3A182D0B3C2B182D0B2D000000AC
:10047000003F003F003F0106000101003F0F003F29
:10048000003A08010B1A382E003A08010B1A382ED0
:10049000003A083838010B1A382E3E3A0818223430
:1004A0000C182D003A34083E342E0022220C180875
:1004B000342E00182222081C342E0018082222385C
:1004C000083E2E250F242F250E08250F22250F2C40
:1004D000003B102F080B3D380B01182F003B08384C
:1004E000083E2F0838083A2F003A083C08183D18F3
:1004F000083C08183D182F000000000000013F32A2
:10050000343B18340C341C08383E2A3A342D183A3F
:100510001808251408382A00180E27380B2510084B
:100520002F0801250E082F3A1C250F0B2510250F2B
:100530002C003A250F0E250D2C00341D112E003AEB
:100540000919340D2E00190B38220F1B092F1922FF
:100550001B092F0000000000000000000000000048
:10056000000000000000000000000000000000008B
:1005700000000000000000000000001E0E0F000D33
:10058000000000000000000000000000000000006B
:10059000000000000000000000000000000000005B
:1005A000000000000000000000000000000000004B
:1005B000000000000000000000000000000000003B
:1005C000000000000000000000000000000000002B
:1005D000000000000000000000000000000000001B
:1005E000000000000000000000000000000000000B
:1005F00000000000000000000000000000000000FB
:1006000000000000000000000000000000000000EA
:1006100000000000000000000000000000000000DA
:1006200000000000000000000000000000000000CA
:1006300000000000000000000000000000000000BA
:1006400000000000000000000000000000000000AA
:10065000000000000000000000000000000000009A
:10066000000000000000000000000000000000008A
:10067000000000000000000000000000000000007A
:10068000000000000000000000000000000000006A
:10069000000000000000000000000000000000005A
:1006A000000000000000000000000000000000004A
:1006B000000000000000000000000000000000003A
:1006C000000000000000000000000000000000002A
:1006D000000000000000000000000000000000001A
:1006E000000000000000000000000000000000000A
:1006F00000000000000000000000000000000000FA
:1007000000000000000000000000000000000000E9
:1007100000000000000000000000000000000000D9
:1007200000000000000000000000000000000000C9
:1007300000000000000000000000000000000000B9
:1007400000000000000000000000000000000000A9
:100750000000000000000000000000000000000099
:100760000000000000000000000000000000000089
:100770000000000000000000000000000000000079
:100780003A0B343E2A0B180B1808083E2A08341F6F
:100790000F340F3E2A0B341834081C102A08380C6A
:1007A0003C2A102A0B183B18340C1C10102A342F2A
:1007B0003A343C2A0B343B18340C102A3C2A3A18A1
:1007C000180B34303A303C2B303C2B303C2B303043
:1007D0002B38302B30303C2B303C2B30302B303C06
:1007E0002B0B3434343C2B342B34343C2B2F000073
:1007F000000000003F2021201E2021002A15212A70
:10080000343A0B19250F3A0B250825083E2A1825DE
:100810000A083E2A0B250A08180C0B3E2A3A083D06
:100820002A1808182A250A3E2A250A250C250A3ADC
:10083000083C3B1808180C3E182D250A24300B25BF
:100840000E250F242F09250F2430250F2430250FC6
:100850002C0B2514340B1F0B1F2B0B2514252D0BD4
:10086000182F000000000000000000000000000041
:10087000000000002D020016163800003F2D000178
:100880003A3C3A18250B3C2A080318080309182596
:100890000E27250F273C2A2708013E2A250F2A2547
:1008A00022250F250A250A3C2D0B3E2C2A250E2732
:1008B0002F3A3C3A18250B250A250C082727250A2C
:1008C0003C2D0B3E2C2A250A3E2F250A250A250AF7
:1008D0000B250A2C250A250A250C250A0B2F08189A
:1008E0002D08182D08182D08033C08033D182D006D
:1008F0000000000D320A2F2E24120F3F1313123F57
:100900003A2524252425242A25242C0827210827B4
:100910003008272D0827290827303E2733250B3C90
:100920002C250B250A182727273E3A1827270827A2
:10093000273C2A102A2D242F250B3C2C250A181879
:1009400008393C3818270818273C2B272B083E2B42
:10095000250F242F082F250C082B25073A181818C7
:100960003A18091818250A3E2B250A250B250A08CE
:1009700027273C2D272B0000000F121313121314EE
:10098000250C081818183A1809183A1818083E2A99
:10099000250B083E2A250C0818250A1808003818C7
:1009A00025112700083E2A2522250F3A18273C2A20
:1009B000272A083E2D242F25270C3C2B38083E2BB8
:1009C0000C38083E2B392D10102A392D3A0B180BF4
:1009D000180B180B18182D25270C3C2B180C182752
:1009E0001C0B272B1010102B3A2D000000000000CC
:1009F0000000000000000012343F1E1E1D131312E1
:100A000025270C3C2A180C180C272A1010102A2D08
:100A1000250A2527180C180C18083E2A2522250F10
:100A200010102A083E2D242F25073E2A250A250CC2
:100A3000083C2C1825263C2A08181C2D2430252774
:100A40001C1C1C102B2D250C083C2C18250A2526B7
:100A50003E2B243025270C103E2B102B2430081859
:100A6000081C0818081C2D000000000000000000F1
:100A70000000000000000000000000000000001264
:100A80003A0B18302A3A302D383C2A102A3B2510D0
:100A90002C250A180B18252A0B3E2A102A252A0B6A
:100AA0003C2A0B18180B18183E08033E2B08182573
:100AB0002A180803383C08033D18252A18080B3E5D
:100AC0002B0808081808033E2B082710382A081896
:100AD0002A08033E2B080118252A182A0838081866
:100AE00025252A0000000000000000000000000092
:100AF000000000000000000000120100023E3F3C28
:100B0000250C081918083E2A250C250A09393C3FEE
:100B10002A1808211018083E2A242F0825242C24DE
:100B20002F250A251225243A18253E2F250A3A1882
:100B3000253E2F250A2F252D25073E2B250A250C7E
:100B4000250A252D08180839390818252D2F250ABA
:100B5000252D302B302D3A1818183A182D0000008A
:100B60000000000000000000000000000000000085
:100B700000000000000000000000000000003E2413
:100B80002802322025222522242224222523242340
:100B900022242324372623252625222822292228F9
:100BA000232C332C302C342C3620252C2D2D2C2A84
:100BB000222126210014212430242D243024332402
:100BC0000014212330232D233023001423252B351B
:100BD000002D2D3200322F00343F292C272C362CAB
:100BE0002533212300212C3F372F272F2432372173
:100BF000003235243329002234283400343F2E2E8D
:100C000000253F2E34333421322139333434222528
:100C1000262C3F33231110322D2D2E343236120D57
:100C2000210D13111A15123F2330322734080911F0
:100C3000180D1013332125342D00292D333F0000CA
:100C400000000000000000000000000000000000A4
:100C50000000000000000000000000000000000094
:100C60000000000000000000000000000000000084
:100C70000000000000000000000000000000000074
:100F800018300318323938320308183D18273C2A24
:100F900034103C2D30250F2512080B3E2A0818244A
:100FA0002F2A242F242F2514250F25282512252408
:100FB00025242C252718302A3C3408343A34342789
:100FC0000C0B3E2B0F183A3427083C08383A0830EF
:100FD0002C0B340B340B192528252D250F25200B20
:100FE00027272C0000000000000000000000000087
:100FF00000060625012020120014120B06003F2ACD
:10100000113D15111501103D1105150D1008012494
:1010100008341030191118391D0C1D09110C111547
:1010200011081125012801250024080019051904BB
:10103000090119050901110D103D11310034140188
:1010400000240C38183D09011139183D19051D00FF
:1010500019151D10191518351915003414211125ED
:10106000090111111015150D09011135113901353D
:101070000801180519051908190909010900190DB0
:1010800015350C381C211925090119251934193D6C
:101090000135140118051905190819090901090074
:1010A000190D15350C381C211925090119390901AB
:1010B00019351D251014152C153500240C381C214C
:1010C00019250901191D1D110135080118051905FA
:1010D0001908190901250C3818251D0D1935191580
:1010E0001805090119351D2514201904190509359C
:1010F00019091535083410101905191519311D0075
:1011000019151934193D0135080118051905180973
:101110000931180D190D083814340C3818151D0D27
:101120000901090119251934193D01351401180562
:10113000190518090931180D190D083814340C381F
:1011400018151D0D090109011939090119351D2548
:1011500010101D081D241D25002408001D0119253F
:1011600019241D081925191501281034113D0901EC
:1011700011351139013510351805190518091909E6
:101180001811191108341034191518151D091908EA
:10119000190D012809011905093519090125083416
:1011A000100C190D1D151934193D0901193D013592
:1011B000140D1C1909011905190518091909183503
:1011C0001935012508001905192118151D090128CF
:1011D00009011D19152C190509351909153508348A
:1011E0001018193118151D090128090119051905CB
:1011F00018091909012408001915090119351D25B7
:1012000000341409112D1125090111351139013549
:10121000140118051905002408001D111C09192DB9
:101220001925013514091805190501250834140874
:10123000193D090119151D0119390128012500243D
:1012400008001D0D19081905193D1D110128152C3F
:101250001939012508341400190D1911180509014F
:1012600019151D0119391938193918251D0D0034A2
:101270001409150909011139113D110C113511110C
:10128000012809011905190501240C381C111D112B
:101290001805090119351D251C091D0901350025F1
:1012A0000024080019391939090119151D111939B6
:1012B0001410152C1939012508341410190D19387A
:1012C000193918391D091D111939012809011C2165
:1012D000012408341014190D19151839103D19245A
:1012E0001D11190D193D01280125002408001D0DAF
:1012F0001D0918151D110034102511151105113D7A
:1013000009011135113901350025002408001D0D92
:1013100019051D101D0D181509011D210128012594
:1013200000240800193D191819351D091D181D0D37
:101330001939180409000D2D180D1810093800244A
:101340000C38183D1925090119311D0109011935FC
:1013500019390135140118390D2D0C2D0C2D0C2DBA
:101360000838002408001D011D11183D19051D0D28
:10137000083108310035180409011D2109380024FD
:101380000C38183D191509011D210128140C110DE7
:1013900011311021110511150135183D1D090935AF
:1013A0000920111901240C381C15191509011D09F2
:1013B000193909011D111D11100C1D1119310801D8
:1013C000103D0124083414081D1509011D0919399F
:1013D00009011D111D11100C1D11193100250834B2
:1013E000140C1D011D0D1D1019351905193C1D0189
:1013F0000135183D1D09093501240C3818091D1146
:101400001C151915090119151D111939100C1D117B
:101410001931080118051D0D190D01240C38181576
:101420001D111D1009011D0D190C1D091D110901AA
:101430001D1119150128110915111010191509256B
:101440000024080019311915182119301D1118210F
:1014500019051915191419151911100C1D11193127
:101460000025083414081D25090119151C15191526
:101470000901193901281939193D151400240800EA
:10148000190509011D091939193019150000000045
:10149000000000000000000000000000000000004C
:1014A000000000000000000000000000000000003C
:1014B000000000000000000000000000000000002C
:1014C000000000000000000000000000000000001C
:10200000002C2C16000001340000002319003C1A9B
:102010000000140000000000001F0000002300006A
:102020000000000000000000003610370000003FF4
:102030001F0B141616000200000002020203020227
:102040003C3F023F3E3F0100023F3C023D3D3D3FE1
:102050003F3F00022010112F3032191A191A1014A4
:10206000050D04050512150B0714111403121304B2
:102070000D0D100707101700000000000000233EA0
:102080002D09183819180A180A25091818091825C9
:10209000250004252A021A252509181825081825BF
:1020A000252B2A102509083E25081818081C253C50
:1020B000252508093E2A25252925060C3C2918082E
:1020C000382A002508093E2B18270803083E250852
:1020D0002538182525252B2B0839083808182525DB
:1020E000252B08081825252B3C253908013E3808E2
:1020F000013C253E0B3838182F2E3F1010100909CF
:102100000D0B2826282A2A3C171717003938382E95
:1021100025082525002500083F2A253808180C2504
:1021200025250625000C3C2A3818083F2A0C252AAC
:102130000C182A25252506250025000C182E06003A
:10214000183823081C38232E0008180839083E25A3
:102150002F000F1838230B381C38232C003A0F1887
:1021600013092309180C1C102B09232F003A0F13F5
:102170001809180C1C102B2F170202020809170847
:1021800006063C25252508182508093E2D250B2A7D
:1021900008002525250B3C2A0C250701252510259F
:1021A0002A083E25252508093E2A0C3C2A3818080D
:1021B0003F0C252A0C182A082A182D083F2A252A00
:1021C0000025250F2F08130A3E2B252F3C2F131314
:1021D0002F000F180C3D2B38083E2B0F3808183CE9
:1021E00013133B2F000138180801083E132F000875
:1021F0003E2B252F2525371C2F0806060303030336
:102200000303030303030303030302252610260924
:1022100018083D103F103C2F250B3B252A252A0E80
:1022200010250C25080B3C250825250E0C182434F8
:1022300000250B39250825250E250B3925251025C8
:102240000E25102500250625002510253C0C1824F8
:10225000040F341500083F2D0825253C2B3D3D2556
:10226000142B2425080B3E25250E24303A0C303C37
:10227000243A2D0808080406060A0A3D12060A0137
:102280000D333A1818250B01102A250C08250A25AC
:102290001038250C182A250E252A1025250C07256F
:1022A0002A252508182A0824380825252A02252544
:1022B00025081818081C0818241910252525000AB7
:1022C000252A083818182525000A252B003C08382F
:1022D000180F13180C3D2B083E2B080F180C182C48
:1022E000133B2F243833332B3318302D003030304C
:1022F0002B3A2F0A0A170B0A020B020202020202F1
:1023000002020225020225182525250F2A080108A8
:102310001825250F2A2A252A0818260C1826241BDA
:1023200008180838083F2A0C38083E2B08082A10DD
:102330000E080839083E25080818081C100B1C1048
:10234000240534002D08180C380B3E2A10102D00DF
:1023500008093E2F252B3D3D0010000008093E13C3
:10236000080B18083F2F080B3F132F240B233300B3
:102370001B182D09180C182C0A0A0A0A180A0A0632
:1023800006000825082508250A252518252A2B2BAF
:10239000250C252A020325091809083C2A383E2B5A
:1023A00008093F2B253C25081808093F180838085C
:1023B0003F2B0839380B1A083E2500240035000948
:1023C0001808083E2D0C182A253C2B0825081B252B
:1023D00000081825252B2B2B2A0425000918182561
:1023E00025002A1825250F2B0839082B2525220C16
:1023F000251132252522102D0202020202030203BA
:102400000202030202020202251425000A3F2424CC
:102410003832000918222E0E0000000000000809C2
:102420003F2E08093F122E000C180A0C38083E25D2
:10243000252E0030252E102508093E2A08380818B8
:102440000938083E29380C1C09180C3C2B1808398F
:10245000083E08081C082B3808180838081808080F
:1024600018083808180808180C1C102B2A00241803
:10247000250E2F252F1516161516151516161615B9
:1024800017161503252A2A2A08093C2509181D08AC
:1024900018292508182510083F0C252A0C182A0889
:1024A000182D0009180918081808390C3C2A3E2A6A
:1024B00008180C3C2A3C12083818182E00233F0834
:1024C0000B083C2B081808093E252E23382A083E05
:1024D0002B093E38192A092B00102B08011808096E
:1024E0003E2B080B2F0C183818083938382B3F3E74
:1024F00000380C1C081C083C1C08381808182F0A47
:1025000006320707320010000000003F00302A307A
:10251000013C2A092E0008250122092508220B1852
:10252000252E00011809182A1018080A3D2A3A0811
:10253000250809252E003C08093C2A08242E0824D9
:10254000082A000938083C0B093C2F0B1808030B1C
:102550003C0B3E2B08013C23382F09232B00102B6A
:10256000081C18083908083E2F25000301183E25CD
:102570001838182F000000000000000000000000C4
:1025800000003D1A381A302A30180E3C2A30181E26
:102590000A38010A1A302A30013C2A091A0A0A3E6E
:1025A0002B083E250A18302A30183231380A390AE9
:1025B000302C0019191900083D2A1A180A2E001A81
:1025C000300E3E2B30083E2B0A30182B0A1E0A38DC
:1025D000010A1A302E1B003A0B1830083E2B302B04
:1025E0000918100918380A18381C102B180A1A0A6A
:1025F0001A3830092525100C3C2B180925252508EB
:1026000025091929083E2A0838083F2E0A250818E6
:1026100038102A0C01093E2A38183808180C0118FD
:102620002E150C01083E2A1C2A0308180838083EFB
:102630002D0C1B0B1818252525252525100C2725C5
:1026400025102404002508250809082A1419002843
:10265000000000000000000000000000000000007A
:10266000000000000000000000000000000000006A
:10267000000000000000000000000000000000005A
:102680000000000000001A000306030C31363F1A58
:10269000021421030E12140C140F13213F1A0214FA
:1026A00020220F20010513030513150C200F04042D
:1026B000270F012C3939200E013F1B021314101073
:1026C000101032313B202E3604202E3B0F322020BA
:1026D000221203052E213B3F1B0209201010362039
:1026E0002E3031323B201010380C3B3F1B0214229D
:1026F000042D323B3F1C020928042D292E3B200CBF
:1027000002383F1C020928042D292E3B200C0E2DD7
:102710003F1C021422042D3B0628042D292E3B20A9
:1027200038093F1C020920101032313714223F1C97
:10273000030920101031313814222F3F1D030920C6
:102740001010313914223F1D031422030D15052EDC
:10275000213F1D041314183D3F1D04142113010CC7
:1027600009121409203F1D0414220F2C05102014F7
:10277000203F1E04042030092012292E2C2E2C2E3E
:102780003F1E0404202E3B20130E2C03130E202288
:10279000042030092012292E3B3F1E0413183D311E
:1027A000203F1E0513183D3F1E1401123B20122D21
:1027B0001913203035312E35312E3F1F14200520BE
:1027C000052D3B3F1F140920122D0E293036312EC6
:1027D0003F1F141421100513200E17122705270F71
:1027E000200E272207312E3F00151314123D3B3FC8
:1027F00000000000000000000000000000000000D9
:1028000000000000000000000000000000000000C8
:1028100000000000000000000000000000000000B8
:1028200000000000000000000000000000000000A8
:102830000000000000000000000000000000000098
:102840000000000000000000000000000000000088
:102850000000000000000000000000000000000078
:102860000000000000000000000000000000000068
:102870000000000000000000000000000000000058
:102880000000000000000000000000000000000048
:102890000000000000000000000000000000000038
:1028A0000000000000000000000000000000000028
:1028B0000000000000000000000000000000000018
:1028C0000000000000000000000000000000000008
:1028D00000000000000000000000000000000000F8
:1028E00000000000000000000000000000000000E8
:1028F0000000000000000000170B193130313730A4
:1029000033373B1C102A0B230B1838313A313E2A3F
:102910000B310B313A2B310000383E2B3933333F2A
:102920002A0B1F0B1F2B3B0B3E2A3B0B3E2B091F79
:102930000A1F2B172B303030303030303030103011
:102940002A08093F2B1414141414141430302504CD
:10295000300B233C2B3F0B09180B180B1C102B0BB7
:10296000233F090B0B182F123333090904170526CF
:102970001816103316000020241318250C100C2FE5
:102980000000000000000000000000000000000047
:10299000083F271824233600241B24383606163611
:1029A00026360B33031B160A3303260B33061B2371
:1029B0000B000B0818102D2436031E002D2B2B00A6
:1029C000130C3F1129002C0300152B0017140010C5
:1029D0000000100029000000000024062636230B0A
:1029E000260B3303260B260B261B002F2800140E64
:1029F0003F1B243F1B2C00140E0014133F1C3800F7
:102A0000083F231824361600083F2A24061E3600E5
:102A10003A1B2E27132E24360616002E2B2B2B277F
:102A2000083C253F2424371600083C2D3F2A240665
:102A30001F37003A180818380F181818381F2423A1
:102A400036071637230B270B270B270B270B270BD4
:102A5000270B270E002E001F3F3F20213F15033F6D
:102A6000213A3F151B3F27073F12233F250F270021
:102A700016240000243A2F0000000000000000008F
:102A80002433031300083F2A083F2D243818241B41
:102A9000330024243833031323331300083F2A243C
:102AA000330008381824031300083F2A2403133383
:102AB0000024031B33233303230B230B230B230B90
:102AC0002300102D242D00191F1A00191F1A001998
:102AD0001F1A00000000000000003F1438083F2CBF
:102AE0002D313F142B27002B04190000000000009B
:102AF00000000000000000000000000000000000D6
:102B0000001B0825011808383C0B1B083C2A011B38
:102B10000B0B3D2A3A081B38083D3A083D2A0B3D6D
:102B20003A0B180F081B0838180B170F0B3F2A1FFA
:102B3000102B17103A083E2B0B083D2B0B3D3A3853
:102B400008381808083E2B08383F0923102B0925A0
:102B50002B380B1B2A003F003F31310000000027BB
:102B6000132F2E380818132B381B2B0C2B3A270940
:102B700025120C23132B381B2B000818083F242F79
:102B800000181818181B18080A3C2A093E2A381879
:102B900026080A3E2A222E00080A3E2E252E2A0842
:102BA0001B22133E25262A08093F2E080A3F2E081D
:102BB000012A3C3C3D3D07000818081808181B2353
:102BC0002323230B181818230B2E000000000839AC
:102BD000180838180838180B381B2F003B0808183D
:102BE0003808081838080818380B1B2F003B083D18
:102BF000393818083818083818102F2F000000002E
:102C0000000B25083F0B0B252718083D2A3C0B3FDE
:102C10002A24270038082A242700382A1F1F0B18C7
:102C200008391B0B1825132A0F3C2A0B3F2A381C86
:102C3000100B10380F10383C271C102A0B180B27CC
:102C40002E0B25083D3818083F090B2508100B3DB1
:102C50002B0B1838083C2308272E14033F02023E92
:102C6000013F3F3F322F2F2E3C2C322D0009252FC4
:102C70000000000000000000000000000000000054
:102C8000003E2708093E2A2708093E2A271F270F4A
:102C900038180B182727243400080B3E2A2727272B
:102CA000080818240400083C2E3F2A242234003847
:102CB0002A242234003808182A001400003F191969
:102CC000193C2E2E392F073B0000000000000000A9
:102CD0000000091B083F2B102B132B23080B3E2F42
:102CE000102D02000B381B39180B3C303E0B091914
:102CF0002F232F06381830013C2B09182F002521CF
:102D0000003B18180E3C2E1A0A013E2A0902180927
:102D10000208180A023E2A0C18123808180A393814
:102D2000013C2A0A1A0E3C2A1A0B1809180C1C100E
:102D30002A2E0004350B2A0B1838081809180C1C09
:102D4000102A2A000027272A272727272A083E2B70
:102D5000181818182A250025002500243D2B381A9C
:102D600018083E2525142500253C2B253C25002749
:102D7000122B2A272A39383B362F372F353539354C
:102D8000350035003B08381808383C391808383CFD
:102D900039182E00083C083E2B083C083C083E2E03
:102DA0000838083C2A1A0A3D381B0B0B3F2A0A3FF9
:102DB0002A23132A2A38081827132A122E083F2BF1
:102DC000083F2E2B083F0A3F2E081808180818083D
:102DD000182E002F0027083F2B38180B1822001040
:102DE0002B103C101827082F002D391818182B000D
:102DF0003B083D383818083818083818102F2F03AA
:102E00000302033F003808233F231B1B1A1A081F25
:102E1000082700082700081F0827000827002A1A8B
:102E2000081F082700082700081F08270008270098
:102E30000827000B180B180A1823182E0000000092
:102E40000000102427102F083E25083838233F2380
:102E500027232F340008180900083F3818083C2F92
:102E60003F24083C2F2F353B3A3A3A003B083818AC
:102E700008383C391808383C39182F00083F242FEF
:102E8000003C2E1A1A0A1A390A381A0A3C2A390A38
:102E9000381A122A0A381A0E380A1A0A390E1E125D
:102EA000380A0E1E3C2E12162E2A39000000003F52
:102EB0003F001A1A0A1A3C253908081A3808083C33
:102EC0002B180A183A0A381A0A381A122A0A180A43
:102ED000182E381B122A0B180A180A182E0027233E
:102EE000083C083C083E2B08393F2B253908182B95
:102EF00027232F182F3700083D383F272F2D390063
:102F0000243200083F25083D38381A3C12380A1A86
:102F10001A1A0A3C0A3E2A24021A0A003A08180819
:102F2000380A3E2A08380A3E2A08380A3D38383F0F
:102F30002D2432002A182D18000000000000003D4A
:102F400000000009230823082308232B252508094E
:102F50003E2B083E2B302D00180838382325382307
:102F6000383823233A08252F00030925082F0000AD
:102F70000000000000000000000000000000000051
:102F80000000000000000000000000000000000041
:102F90000000000000000000000000000000000031
:102FA0000000000000000000000000000000000021
:102FB0000000000000000000000000000000000011
:102FC0000000000000000000000000000000000001
:102FD00000000000000000000000000000000000F1
:102FE00000000000000000000000000000000000E1
:102FF00000000000000000000000000000000000D1
:1030000016382C1600000134151B0E163F3D021514
:103010003F01023F3E3F0125000002003F3C03000C
:103020000B382C00000000001F0037361700171C5B
:103030003F1900020302020202003F3D3F3F3F00F2
:103040000332151A1A1A10050D04050513180B077B
:10305000141414031214040D0D101207171717007F
:10306000000000001A0D0016163B0300001A1A009B
:103070001A3F3D15011A0012010000000604173E18
:103080002D30380A18381838380918190919252523
:103090000005252A021625250938190818091818C7
:1030A0002525250D2A25060D3C291909382A381809
:1030B0002F302509181909381C3C252509083E2AF6
:1030C00025102529062519250D3C2F090919252527
:1030D0002F2F09390938190938033E252B000A0812
:1030E0000B3F2B080B3F2B0B190B2B0B1918272F02
:1030F0003000003F00083E2A08252F062A2A2826ED
:10310000283C1017091A10131917333938382E258F
:103110000925250025012A252E2538250625010DFE
:103120003C2A38192A0C3B2E0F080D192A25252573
:1031300006250125000C192E0608081818252B064F
:10314000193823091C38232E0508180839093E258B
:103150002F023A0F1938230B381C38232D0D3A0F44
:103160001813082308190C1C112B08232F0D3A0FD4
:10317000131808190C1C112B2F02020202023F0423
:10318000040602020225252509192509083E2D25D8
:103190000C2A252525250C3C2A0C2507022525016E
:1031A000252A093E25252509083E2A08250D3C2DFE
:1031B00038190D192A092A0B25110D19250A1D2C5C
:1031C000022A122525102F13250D2F132F0C190954
:1031D0000B2F070F180C3D2B38093E2B0F38081901
:1031E0003C13133B2F091F0C3A2B09090911070641
:1031F0000A0A0F0915080F081615080C13153F3891
:103200001A1A1A250C091B2512252E33250E2524E2
:103210001700083C2A3F2A0A3E2D2F0A2A0A2A00B4
:10322000002E3325090B3C250925250E0C192435C4
:1032300000132A092525092B3A250C392500122AC5
:10324000122A250109252F023F25250125090C19E0
:10325000242D0B351100083F2B092525092B3D2571
:10326000132B001000000809080B192D1B0424085B
:103270001818182D0A0A0A0A0A0306070606040681
:1032800008080612060B190D190A0A063A193825FC
:103290000C3D112A250C09250A251038250C191872
:1032A0002A38250E252A3825250C3F252A082525CC
:1032B0002A0825082A02023A182A3A182A003A1837
:1032C0002A252525091819093C2B381C0819251809
:1032D00038252525000B252B093818192525000B25
:1032E000252B2525102529063C0938190F13180C04
:1032F0003D2B093E2B080F190D192D133B2F0B0BDE
:103300000B0B0B0B0A03092E0F020202020202250D
:1033100002023819252525102A250D2A192A090007
:103320000919252A09250925250E0C19250C19240A
:10333000081B09190938093F2B0D38093E2B0909CB
:103340002A090919091D110B1D11091B2513251B1C
:103350002D09180C380B3E2A11112D07090B3C2B97
:10336000083E2F252B3D3D03090B3E13250D132F42
:103370000938190C192D020202020202020202028D
:10338000022519252A2B38250C252A25252F25131A
:103390002501091908093C2A383E2B09083F2B252D
:1033A0003C25091909083F190938093F2B090B1A4F
:1033B0000E1A093E2500242D3100091909093E2D58
:1033C0000C192A253C2B0925091B2501091925253E
:1033D0002B2B0C2A1025000919182525002A192540
:1033E00025102D0939092B252C092509252F3325D1
:1033F0000E0C25113225252509250925250E2D031D
:103400000202020202020302030203020202020299
:10341000022D0D15251D05251325092E19083F24FC
:103420000C192438310009190C0838093E25252EBD
:103430000E0E09083F2E09083F122E252D382509AA
:10344000083E2A08380919380D1D09190D3C2B1999
:103450000939093E09091D092B38091809380918C5
:10346000090919083808190809180C1C112B2A0019
:1034700030302B3A2F0F10101010100F0F100F10AC
:10348000151716252A2A3809083C2509191D091976
:103490002C2509182510112A062E331A2525090A6C
:1034A0001A2B0809193809190918093D25380C3C47
:1034B0002A3F2A09190D3C2A3C1209381818382EBF
:1034C0000D233F080B093C0B08192F23382B0A0B3F
:1034D0003E2F0A2E340725000C3A2F0813102B0814
:1034E000001909083E2B090B2F380C38183818081A
:1034F0003938382B3F3E00100000000002033F1413
:103500001403380D1D091D093C1C08381938091908
:103510002E06091A0A1A0A1A081B2A131A0A0A3D41
:103520002A3A0B2512122A2E0A303E3F3F3F0F2522
:1035300001081808182E0F022519251300222E192C
:103540003C091B0B083E2B0B252E0825082B0230AF
:103550002B302F050105010C0D3F3F0F28293F3F60
:103560002B2D290D100F01133F3F14200820092097
:1035700006140512031514193F3F00000000000057
:10358000000000000000203F1A381A302A301B0BC0
:10359000003C2A0A3E2B0A3E250B1A302A301A0E0E
:1035A0003C2A301A1E0A38000A1A32313C0A390AFB
:1035B000302C001A1A1A00140A3D2A1A1A0A2E155B
:1035C0001A0E3E2B0A3E2B0A301A2E0A1E0A38000B
:1035D0000A1A2E020B1F2F0B1F2501081808182F7F
:1035E0000E0E0F2D2C013A0B19300A3E2B300939E3
:1035F00019120819380A18381C112B1A0A1A0A1A33
:103600003008252509252E06093E2A0838093E2BB3
:103610000A25081B112A0F00083E2A3819380818F5
:103620000F00192B0F00083E2A1F2A030003010276
:10363000380838093C0A083C2A0A1909020A3C0AD7
:103640003E2B09003C23382E08232B19112B091C73
:1036500019083908083E2F25251938192F020303A8
:103660000303030202300B1B0B133D29252B0B2FE9
:103670002501250925010C3B0C0B3C2525000C3AA6
:103680001E2E080908120A39093F1A0E182E0900C1
:10369000000000000000000000000000000000002A
:1036A0000000202009052D01093F1A00000000003C
:1036B000000000000000000000000000000000000A
:1036C00000000000000000000000000000000000FA
:1036D00000000000000000000000000000000000EA
:1036E00000000000000000000000000000000000DA
:10398000083F231B241A330024081B2724332B133E
:10399000331B330A332A23130A332A1B0B332B23FB
:1039A0001B0A000B0818132D24332A23002D0013A3
:1039B0000C3F1129002C0300152B001714001000D8
:1039C00000100000002B00243A2F00123F3F1A2D58
:1039D000001D08000000242B1B331B0B1B0B332B7B
:1039E0001B0B1B0B1B23002F2800140E3F1B243F17
:1039F0001B2C00140E0014133F1C38042700001663
:103A0000083F261B24362E1600083F2A242E263671
:103A1000003A1A2E27122A24362A1600132D263A87
:103A20002D27272600191F00083C253F262437167E
:103A300000083C2B3F2B1B380F1827241F3600385B
:103A40001F242F16371F0F1F0F1F0F1F0B1F0B1FBA
:103A50000B1F0B1F0E002A242E2737003A2A242F73
:103A6000002D001F3F3F20213F15033F213A2B2B04
:103A70002B2B27272B2B000B25122E380F1F132B38
:103A800024372F1700083F2A083F2D271B242337F0
:103A900000242324372F171B371300083F2A24370D
:103AA000000B3E381B242F1700083F2A242B173702
:103AB00000242F27371F372B1F0B1F0B1F0B1F0F28
:103AC0001F00132D273A2D2800191F00191F272723
:103AD0003F132F3F2C333F1428002B0427000016E0
:103AE000243F151B3F27073F12233F250F2A3B1872
:103AF000180818272F3C18380A1A003F2E083E2BAA
:103B0000311B083C2A38093D2A3A0819380F3D3A3A
:103B1000083D2A0B3D3A0B1B0B0B1B0B381B0B17DD
:103B20000F0B3F2A1F132B17173A083C2B381B0B80
:103B30000F3D2B093D3A380F381B0F0B3E2B0B382E
:103B40003F0B23132A08252A380B1B2A3A0B232B59
:103B50002D27132F083E2E0B25122E380F1F132B47
:103B6000381B2B0C2B09383C0B1B2708250C232B4F
:103B700000003F3F033D31303F003F00003A082343
:103B8000321818181A381A090A3C2A083E2A1A2329
:103B9000222E2E250F2E09001A08033C251222235F
:103BA0002A3D30081A081A081A1A222223220A1A51
:103BB0001A1A230A2E000000000000002E083918EF
:103BC0000838180838180A381A2E2E3B080A1838F0
:103BD000080A1838080A18380A1A2F3F2E083E2BF0
:103BE000252F252539352F322F2F2E0F0B3E2B2732
:103BF0000B1F270B1F2F27270B2B3C3B0231021AD1
:103C0000030822083F243A08181A083D2A0B3F2AC5
:103C1000241F003A0A2A241F00382A3F3F090B2597
:103C20002E1F270B18272A391F083818083818089C
:103C300038180F102A3C2B1C0B18271C102A0B18A5
:103C40000B272D0A3D38180A221808100B3D2B0BA4
:103C50001838083C231808100B3D2B0B183A082382
:103C600008232D3E013F003A0A1A083C083E1A2A52
:103C70003F00022E2E2E323D2C322D08252F2E00F5
:103C80000F3E27090B3E2A27090B3E2A271F270F25
:103C9000381B0B18271724243500090B3E2A272729
:103CA0000817380B1B242D000B3C2E3F2A241A35F5
:103CB00000382A241A35003A0B1B2A001400003F52
:103CC0001919193C3D002E2E2E2E2F3C3D000B2F96
:103CD0000F13252B13252B1B1B1B09252F123A1BFA
:103CE0002506032F08250C3A1B2F08092509251145
:103CF000212B13253A1B2B182E08333333000000D9
:103D00000E3B180E1A0A023E2A08021A08020A1A64
:103D10000A023E2A0E1A120B1808190A1A0E1C1251
:103D2000112A180A3938000A1A0E1A2E0035000214
:103D30000437380B2A0B1A0B1808190C1E12112AFB
:103D40002A000027272A27390808183808081838B1
:103D5000080818272A0A003E2E0A252500242800D4
:103D600024083D25381F253D25132500172B0C1A47
:103D70002A241F002B3A080818272A3A383C363BD9
:103D8000393B08381808383C391808383C39182E9F
:103D900035083E2A083E2B083E2A083E2E083808E1
:103DA0003C2B3D381B0B0B3F2B0838083F0B0B1BE4
:103DB0000B380F1F130B1B0B19390F3D38381F130E
:103DC0000F112A3B132A122E3F0838083F0B0B1BFA
:103DD0000F18130F18130F182E08182B00000000CF
:103DE0003F00083F2B182F3908083E2B2710080BDF
:103DF0003D2518083D383F2B083F2F272B383F35EE
:103E0000353535393434353B3B083D3838180838BA
:103E100018083818102E2E353B0B1B23081F0827B7
:103E20003A0F18081F08270818380F1B381B081FDF
:103E300008270818380F0B1B380B1B081F08270B07
:103E400018380F0B182718132E242E083E2B083E67
:103E50002508380838180B1B23270F083E38181878
:103E600013242F3538081B083F2B2413083F2F2716
:103E700013382F3A3A3A3C3A3F3F08003A030302DC
:103E8000033F353B08381808383C391808383C39A6
:103E9000182E3B3B083D39381808381808381839AF
:103EA0002E381A1A0A1A390A381A0A3C2A390A38D4
:103EB0001A122A0A38392E0730003F14393B180BE2
:103EC0001A2B08381808381808081A3808083C2B24
:103ED000180A183A083818083818122B0818083920
:103EE0001A0818180A2E3F35272210382F380F0BC2
:103EF0001F232F3F2F00380F000F1F2F00162F16E4
:103F0000391A1A083D123E2A083C083E2A0A3E2465
:103F100008393F2A083918083818083818122A0AA8
:103F20003E240A3808182E0000243300083F2508D4
:103F3000393D38381B3C13380B1B1B0B3E2B0B3EFB
:103F40002B242B230B003A081808380B3E2B08387B
:103F50000B3E2B08380B3D38383F2D2433002B18EF
:103F60002D18000000000000000005050F1B380B95
:103F7000000F1B0F38083E2F0B1F2B163102161A8D
:103F80000000000000000000000000000000000031
:103F90000000000000000000000000000000000021
:103FA0000000000000000000000000000000000011
:103FB0000000000000000000000000000000000001
:00000001FF
