:1000000000000000000000000000000000000000F0
:1000100000000000000000000000000000000000E0
:1000200000000000000000000000000000000000D0
:100030000000000000000000000000260000273142
:10004000393E050E200738000000000909090000AC
:1000500000000000000000000000000000000000A0
:100060000000000000000000000000000000000090
:10007000000000000000000000000000000000364A
:10008000020B1601180200010103003F0E050E28A5
:10009000161D280E0E0E0A00053F04000300023054
:1000A0000120003E3F3C3E0021001E381C003E0067
:1000B0002A382E003D3F3C303D203D3C3D000101B3
:1000C00001010101011A1B3B201E151B1E04040423
:1000D0001A1E1600001B3B20131E13131608011BCB
:1000E000161B3A2827001F0000161308011E1316BE
:1000F000391A03381A031C00003F003D000F061692
:100100003F3E00001B3E3F3E3D041E000000033EFC
:1001100000001B3C1A1A241A1F2B3B0A013A103B01
:1001200005033A1000393804003A103B0F1E3A100C
:1001300000000000000000000000000000000000BF
:1001400000000000000000000000000000000000AF
:10015000000000000000000000000000000000009F
:10016000000000000000000000000000000000008F
:100170000000000000000000083D2C0316101613BC
:10018000000B00050D06060C180018083F28111872
:10019000291C1A041C1C211A20221C211D28221C87
:1001A0001D3E3D3C0C3B0D18180A0000001A3B0D8B
:1001B0003A18051A390D1A080A1A18332C001A3D74
:1001C0002C3C2F00033C1003023C113C123C130357
:1001D00003000B38002137283635283433283231D4
:1001E0002530282F2E2B2B030000000000003A2082
:1001F000273B05261F2817181F073C130F100A005E
:10020000083F0B072D2C083E020228032B2D2C2B18
:100210000408213D283F073C00222B02112B0B072D
:10022000083B20330B3A021102260802113902085A
:1002300002180838203C370211022601362009072F
:100240002808022C0215022C1C35281534281533D9
:10025000201632021102260B3F0B20030218200742
:100260000708021E08000000000000000000000057
:1002700000001B2F033B0D153D18120E17211117FF
:100280000211002B0428002B0302110202203E035E
:100290000211002B04203E03200B0B030028020058
:1002A00028030233103E04022802110233103F04D7
:1002B000282803103E00393D033C00103B0308088A
:1002C000280821282808083F0839390204311F036B
:1002D000020B1F21232403020B1F222325030217D5
:1002E00002023A20310210221F2523391018033F41
:1002F0002822212524000300001C131B26013F187F
:1003000000030609000306040623023400333F08F5
:1003100003260206230300313302003E082F3D204E
:100320002F310431310404312B3E313302111B00D3
:1003300033283E0300313302003E080C3C200C31D0
:10034000263106043B2B3E31330211390033283E5F
:10035000033A08081703130031310222173122171C
:1003600017170039382822370228222200000000FF
:10037000000000000000001F013F3F383937103BEC
:100380003F08263333162633240808083E02061198
:10039000083E020A0117083D2803022804313331C0
:1003A000003C102633203B000033282E021D012480
:1003B0000023023A1F023E022115080A0524313AA1
:1003C000333106062B2B08312B050224330103029F
:1003D0003E15023E3B0039380037380036380035CC
:1003E000380034383338003202283B3800313800C6
:1003F00000080D302F073F0928203C0A363F003FF8
:1004000000000500021100003F0805082803021142
:100410000A28030400273E201A3D3C201F3B2800E9
:10042000003A022801392838000202002C20342D1D
:10043000202901370100033A2E213F3A2600032EDE
:10044000393B370019031E3628033520132C2D3471
:1004500002113D3320202D32021102262C202C03C4
:10046000312026202D0330202B2D032F03000011D7
:10047000023C0F34033D3F00201B1E242E18173F63
:10048000000023063F060000000003063F0E0008A0
:100490000000030406063F1800100820001F08048F
:1004A0001F0403000005202804230000231F272722
:1004B000052A00270023271F0532003434322A2161
:1004C00034283A021B3C11023034020F2A02123D3A
:1004D00000001F10233E08103D06231000002331AA
:1004E00024201C21211F001C000022111F22011F9B
:1004F0002511232501232800000000000000080129
:1005000001280905090408092020030101033120FD
:10051000083102003101000027173F003E02112779
:100520003D0306023A003C000B021B3B0208021B83
:100530003D0000021B3102113D00050E0E39003056
:100540000E0E050E3E000F05013905050F050F3E85
:10055000050F050000000000000000000000000082
:10056000000000000000000000000000000000008B
:100570000000000000000000000000183E0F2F17D0
:10058000000000000000000000000000000000006B
:10059000000000000000000000000000000000005B
:1005A000000000000000000000000000000000004B
:1005B000000000000000000000000000000000003B
:1005C000000000000000000000000000000000002B
:1005D000000000000000000000000000000000001B
:1005E000000000000000000000000000000000000B
:1005F00000000000000000000000000000000000FB
:1006000000000000000000000000000000000000EA
:1006100000000000000000000000000000000000DA
:1006200000000000000000000000000000000000CA
:1006300000000000000000000000000000000000BA
:1006400000000000000000000000000000000000AA
:10065000000000000000000000000000000000009A
:10066000000000000000000000000000000000008A
:10067000000000000000000000000000000000007A
:10068000000000000000000000000000000000006A
:10069000000000000000000000000000000000005A
:1006A000000000000000000000000000000000004A
:1006B000000000000000000000000000000000003A
:1006C000000000000000000000000000000000002A
:1006D000000000000000000000000000000000001A
:1006E000000000000000000000000000000000000A
:1006F00000000000000000000000000000000000FA
:1007000000000000000000000000000000000000E9
:1007100000000000000000000000000000000000D9
:1007200000000000000000000000000000000000C9
:1007300000000000000000000000000000000000B9
:1007400000000000000000000000000000000000A9
:100750000000000000000000000000000000000099
:100760000000000000000000000000000000000089
:100770000000000000000000000000000000000079
:10078000003E0020043D003C010001200C01043B20
:100790003B053B20143A0000040000001900210032
:1007A0002021001D3900160105000101002904382F
:1007B000010120333700160005000039203D2000DC
:1007C00001360022201A200703080A21080D2621DD
:1007D0000F0003132221081703081A26211C1908E9
:1007E0002035000A0B08260B270A0B082C340000C2
:1007F0000000000011330405300220002B153700E3
:1008000005003F0E0226003E02000208280A2F02C1
:100810001C2828173D023E0B31313C280F202F08A1
:10082000062F300B0F0200283202180216020B208E
:100830003108282F0B3030282F0302093C133B02CC
:100840001D02153C0C3F020F3C1E02263C280226CE
:100850003B3A020E04393839371D36020E0216357E
:100860000034000000000000000000000000000054
:10087000000000000B00042C2B000610053F3E1169
:1008800020080020021E101F223F1F213F052102C9
:10089000303E020F3D18213C1F05201102260F0299
:1008A0002D02260218020028033B203E0402303E9F
:1008B0003A20080020020B0212023431393C0202B5
:1008C00028033B203E39020028380218021C020986
:1008D00037023E3B021C02100234020B3635310156
:1008E00003310003310203313411033301030300E8
:1008F000000000003F3E0135083A0F14101C2A3852
:1009000000020E0217020B1102003B013F23003FC1
:1009100023023F31043F32033F33043F32021E10B3
:100920003E020B020B203E3D3C1820323B3E273A54
:100930003B18363226033F2E021E103E020B2029A2
:1009400029041801293D29293C18123B00292812A5
:10095000021B3C0C29390234311D021100271F23D0
:1009600020210624200202282F0218021E020B2733
:100970003A3C18033B2F000000123A101C2A28179B
:10098000023431351F23202106242036202B281B3A
:10099000021E2B281B02343136020B32353621352C
:1009A00002023F3635202D022D022620323E18321B
:1009B0003D203220033F21020C082807211F200779
:1009C000092123200810030932390003003C083BA9
:1009D000093A0A39322003020C0828241F09233F50
:1009E0000A3837260A093219000300000000000007
:1009F000000000000000003A0F38070F3F101C2ACB
:100A0000020C08280B1F09230A3F0D0A09320203B2
:100A10000209020C27081F09231F2821022D022684
:100A20002732152720033F3E0211283E02180200FC
:100A300031283E1F0237103C081F1F033F03020CE2
:100A400008090A320003020031283E1F020B023758
:100A500010143F07020C0809281E32163F0D082209
:100A60001F220922232203000000000000000000D2
:100A70000000000000000000000000000000003A3C
:100A8000003F2E1908001E030120032E031502113A
:100A90003D0209203E3202003D2014321602003D84
:100AA000281D3C31293C1F2311313C2011313702D4
:100AB0000038373B0211383B0127020031313D2815
:100AC0001C29373829373A200E27391F0028271FBD
:100AD00028313A281C3106230200312827212929F0
:100AE000020D1400000000000000000000000000E3
:100AF0000000000000000000003A003F00003E3807
:100B00000234310A312B280C0234020B0A0418007B
:100B10001F323109322732201B3C3427020C3B3F65
:100B20001A0209021A0214202A02363F0209202A58
:100B300002363E02093E02160211280B021802007C
:100B4000020B02163100230A06230302123E020999
:100B50000216211207030001020320000300000017
:100B60000000000000000000000000000000000085
:100B7000000000000000000000000000000033083A
:100B800000003025000230000033303132063214CC
:100B90002D1D2B3833002D1A2D162C10300632281F
:100BA00000333436002C3221253A3800320E301111
:100BB00021112F1A0027230B230E31113317321A5C
:100BC0000027231E23213124332700272823332DF8
:100BD0003F252F3925323221003F2C252100213598
:100BE0003F2532282629333F322E0032253F32302E
:100BF000212F2E3F2B303F303F2C3F21003F2F2510
:100C000033343F2F00253F2C252400253F212C0085
:100C1000352C3F221610002F002F292F003F112DB9
:100C200032120013121A123F2F39292800230019FB
:100C3000131212003032002925273A2F0E3F0000F0
:100C400000000000000000000000000000000000A4
:100C50000000000000000000000000000000000094
:100C60000000000000000000000000000000000084
:100C70000000000000000000000000000000000074
:100F800001043E030C080A143D030311023C083E11
:100F90000D2A08031A0226021B043B20221F003CD4
:100FA00037243C393C3B022102260200021A02147B
:100FB00002083D02172A213602082A0E0109043AC6
:100FC000003920063800010D370211030400010129
:100FD0000036003500340E023E02160226023C3373
:100FE00032313D0000000000000000000000000061
:100FF000003D2C371100221000000831003F000096
:10100000020F1413120120030D0D0E040D0A010925
:1010100009093E202F212021242034213420090ECB
:1010200014200113030D060F09092D3E0C2F242057
:101030002E243334323404052006030136390A0CD9
:101040000909092D200C212402092026322D3420E3
:10105000213032202130202921270D0A0A05010DD7
:101060000E05010E2004100F0914030F0D010413C7
:101070000A05202121211B2D2222221D1B2C232386
:101080002323092D2005212D2E252D212E20252D30
:1010900032390A05202121211B2D2222221D1B2C41
:1010A00023232323092D2005212D2E253021252C16
:1010B0002D252F320D0A122032320909092D200563
:1010C000212D2E253225293325320A1820212121D0
:1010D0001B2D2222221D092D200433213325222CF1
:1010E000202D292E2D252F320D0A10202121211BE4
:1010F0002222222209093E20293333332D222520A2
:10110000212E2C20252D32390A04202121212022B4
:101110002222201B23232C202E2E092D2004302FA9
:101120002934292E2D212E20252D32390A04202163
:10113000212120222222201B23232C202E2E092D88
:101140002004302F2934292E3021252C2D252F3213
:101150000D0A12203220393909092D3E04252F337A
:1011600034202E2025273334320D0D0A050D121997
:10117000030F0D0104130A02202121212D22222216
:101180002024242409093E202F36202D2D2F3920FC
:101190002C2F2B0D030B2121212122222222090990
:1011A0003E2028252B332D20252D3239222C232B90
:1011B0000A17203636361B2121212D222222201B00
:1011C0002D2D1D1D2D3E13253223202D2D2F390DA4
:1011D000060D36363620212121212222222209091C
:1011E0003E20292C202D2D2F390D030D1B212121CF
:1011F0002D2222221D092D3E032C21322D252F3296
:101200000D0A0A020501100F0E14030F0D0104133D
:101210000A022021212109092D3E13252022252102
:10122000302F2E340A02201B2121211D09093E20C6
:10123000252D36252232212B2F29340D020C0909A8
:101240002D3E0C29342032252B30292E330D102031
:101250002E2E2E1D09093E20322F25252030333415
:101260002232212B2F2934202E2E20342D250D0A19
:101270000A100F07010D030F14120C200F0D010EA1
:10128000130D13141B2121211D09092D20132132B7
:10129000202D292E2D252F3220302F27212D0A03F6
:1012A00009092D3E032F3429352525382335292FCB
:1012B0000D0A12202E2E2E1D09093E203221252036
:1012C0002E2E202933343523292F330D0518363897
:1012D000380909093E2038253534202120091420F9
:1012E0002E33323534292E0D0D1209092D3E0D21D4
:1012F0003425203233250D0A0A0D13030C0C0E057C
:101300001513030F0D0104130A0809092D3E0429C2
:10131000302C3920282920282C303425340D16056E
:1013200009092D3E1328372029323721252025325F
:10133000292F0D0A213B222220233B2024202E2E60
:10134000092D20032D222E252D3534292C25232F40
:101350002D2124330A12201B2E1D200120022003E0
:10136000202E2E092D3E1225252120232D2D2E2421
:101370002001200220030A212E393425342E2E0983
:10138000092D20032D2D2E343425340D0D0A100582
:10139000090120030112031412130A032E342F2C07
:1013A0001320180F0629092D201333302E2434253D
:1013B0002D29212C2F3530350D0A2F2E322F2D11AE
:1013C00028180E2909093E2025332D2534252D29DD
:1013D000212C2F3530350D0A2F2E322F2D0F0909D4
:1013E0003E203530322533202532292E2C2035342D
:1013F00035340A032E342F2C0309092D20012F32F6
:10140000202332322E342F303221292F0D0A2F2E55
:10141000322F2D082802232B30212529092D2004C5
:101420002C25252028252C21342028212123253254
:10143000252E2532240D12150F152028252C342594
:1014400009092D3E0425253420342520213320236D
:101450002132233432202E3432250D0A2F2E322F02
:101460002D1209093E20253430253428202332321C
:101470002E342C29250D032F34322C2D09092D3E15
:1014800005323325233532253420292E0D0A00005C
:10149000000000000000000000000000000000004C
:1014A000000000000000000000000000000000003C
:1014B000000000000000000000000000000000002C
:1014C000000000000000000000000000000000001C
:1020000000030303040B0000000000380F00020D62
:102010000000070000000100003000000038000050
:102020000000000000000000000304140000003065
:10203000302C0C3E36010D0005000C07031F0A0D65
:1020400002002E0100303F0F3F3E3F302012333D53
:102050003B373F0000182D0D00002006200F0F0712
:1020600011353F1C2C3C020C11352D150222300B72
:102070000F1B1D240032160000000000000039086C
:102080003E1F12010016160B15291A08321A172ABC
:10209000273B3C260F2A1026261A0F10251D0B3031
:1020A000313239162C1435203630083237083008D2
:1020B0002526360E2030352E3F200912283F1212D9
:1020C000011A0030360A28121E39273A26203627F0
:1020D0002F0437312531202A2C062C04373725319F
:1020E000362A2C37372531200836003704201037A0
:1020F000063036203B100435020020000C08302248
:102100002B23001020050000151515000606060BF0
:102110002C1222230F23353508332D0013090933E0
:102120003620062435122839011835203018333965
:102130001837152D3620082435240F0B123E0900C0
:10214000392008390B20083F000B0B0B21191836DA
:1021500008001139200811010B20083900201C0942
:102160001C0F080F39090B39250F081C00202C2CD7
:10217000090F390B0939332C200A0F173D1F15356C
:10218000080C3A2C2D36131225360E2821283E082D
:10219000363D2225283E08130B273B37362C162DBB
:1021A0003737202B2529360E2024132839011835DE
:1021B0000018333B18371F132B16213528392934C3
:1021C0000030283700360002280F310008000000D8
:1021D0000000110A0A08202136201411200A2C08B8
:1021E0001111001100042139370439282424001E5C
:1021F0002034252E2A273E022E1D080C1306090422
:10220000070301140C05170D11120A341F0B2009C6
:102210001A25081A281A0837273F392518251501C5
:1022200027200330361D20361822200A0B180718E5
:1022300000273F3F361822200A273F3C362318202C
:102240000A2318230F2008240F241824380B1807FA
:10225000181B1815002520211822233801031423E8
:1022600005012B22361E2036200A2B33000B2F08A7
:102270002B001E21210B10030C020303041D2E3F13
:102280003331202E1627393E2E16200336222D29D3
:102290001E01190B3602200B1803162527033B29B4
:1022A0001B252C372A043F33203F2925043A2C2DA7
:1022B00036300832370808173400162529273E39EA
:1022C000263B300108322A273939260600283621D4
:1022D000390C0C0A0A08203920140A0C393939390A
:1022E0000C000C2B003D1A263226011E002616215A
:1022F0002F002C3B38200239310A252221232420AB
:102300002C3B0D34220D3632262528371636123155
:10231000312528371611321F312E300B312F2B0F5C
:10232000301818211928311821312805183821278B
:10233000011905210B10361938193118180F181802
:10234000071F180021180909210F202C1818210037
:10235000360C200F2510100700000000360D201B42
:1023600036162C2C081B3617281B1B07182818009C
:1023700018241E1F120B3939211A29262A2B2B0843
:102380000C002C222D222E220122252D34171A2357
:10239000200734240A3F361F18092C282701281348
:1023A0002C1108333208362C141411001414212D6A
:1023B00008082D0A0A193C2D2024240700150015B1
:1023C00018142D28210B2D2D3208352D22181023FD
:1023D00000142D2534331A231018232415181E1920
:1023E0002424122E2528372C2E0436233236010BB6
:1023F0002734073236010B1E202B2D2F2A1E281BB7
:102400003C291D3E2C3B0D3D23052424190829079A
:1024100000180015182717120000000003002C11E7
:10242000001D2C10201D1D000B2D1C0B212C2036F7
:10243000252700022D321625360E20370F20132FA8
:102440001B2113283F0013151B393928171A132194
:102450001A182F1A391A092013092F20130A2F309E
:102460003008200A1A082F080A091A2833003436BF
:1024700028132D292D1B281E35180F3A14152C3D15
:1024800002193718341F120B360A20361D301B3044
:10249000193F2C30083513350013330F133715301F
:1024A0001921001B151B131309372109283618376A
:1024B0001315132026082213010F102200180806F6
:1024C0002F36280E3D36160028293C18203E1620AF
:1024D00016002801003D08050010251112363603AC
:1024E000280B362E180F112010110A0A0A1C202161
:1024F0000000153030153120080801303019302B1C
:102500000C022F2F280100000000003600190D1EBC
:1025100006280D130C00372F1222022937222E36DF
:10252000291500061A0B1B2A1B1A1A0B0028001B60
:10253000291A0B29220028360E283E3F33353F3317
:102540003E3C00082136282A01282D2B39392C2E13
:10255000202C281A3912201D0002121D1400322FBF
:102560003108310B210508101D36203F2004202F93
:102570003120321D000000000000000000000000BB
:1025800000003D0008012115220E352815240E35C6
:10259000350107333519261E062826133232022844
:1025A000201C2036321C092A0A1F240100010400C5
:1025B000010000101010001C28373E1C3E3600366B
:1025C00001342001020E200C36260E13363434015D
:1025D000073334013E1600201637010E201B02225D
:1025E00013370E052F20330800082F291C333533ED
:1025F00034202601292B1212283F370129292B3F8D
:1026000029162A3F32200C082117002129290839D0
:10261000003222391203201F2032200808390131EC
:102620002118390106201839191C301819211828C9
:1026300021180E0D0F1025292529252918180C25DC
:102640002918071800183F293809182B220D0029CE
:10265000000000000000000000000000000000007A
:10266000000000000000000000000000000000006A
:10267000000000000000000000000000000000005A
:102680000000000000000F002D0F012C39390D1D36
:102690000A20220F07011501090E21220D3A1420EC
:1026A000211915081620150313060C190C01052015
:1026B00006030C3136270F20200D18190520043D84
:1026C000042A1E310431323B0F313904203B1421DE
:1026D000100F05042221120D2C1A0628042D293171
:1026E000332C2E371422042D2F22120D351B2010CF
:1026F000103122120D031E20101035313414220126
:102700002D220D11282010103431351422090338E0
:102710000D233220101022092010103331361422DC
:102720002F220D2F3C0628042D292E3B20380D3C4E
:10273000060628042D292E3B2038130D07100628E5
:1027400004292E3B20350D121A20200F10141222BE
:10275000210D190F052006310D26142022080C200A
:102760002005010E220D3219200C0720182C010E15
:102770001F0D011E0F313B06280532393234323429
:102780000D1A280F323214220905200F09051F3BAC
:102790000F313B0628053235120D223220062D3B23
:1027A000120D281A2006300D3B2820050928053077
:1027B0000529312E2C30342C30350D042D131412F4
:1027C0003D31120D1132062805300F312E2C3038D4
:1027D0000D283C20220C010501130520191320129D
:1027E000270F203B2030340D001005200531120D3D
:1027F00000000000000000000000000000000000D9
:1028000000000000000000000000000000000000C8
:1028100000000000000000000000000000000000B8
:1028200000000000000000000000000000000000A8
:102830000000000000000000000000000000000098
:102840000000000000000000000000000000000088
:102850000000000000000000000000000000000078
:102860000000000000000000000000000000000068
:102870000000000000000000000000000000000058
:102880000000000000000000000000000000000048
:102890000000000000000000000000000000000038
:1028A0000000000000000000000000000000000028
:1028B0000000000000000000000000000000000018
:1028C0000000000000000000000000000000000008
:1028D00000000000000000000000000000000000F8
:1028E00000000000000000000000000000000000E8
:1028F000000000000000000021383E223F2A320A7A
:10290000263A000C2F0332393800203700392816B8
:10291000352136210008210F020128060124190063
:1029200026282A292B072C3728352436280A003454
:102930000A330B310C2600000000000000002F219C
:10294000362F1808091818181818181826012011F9
:1029500002303928240836102F2C092D092F1B305E
:102960003908042E2F1D270C0B072B2E0115300FB5
:10297000063104122C070202322431201F181839A4
:102980000000000000000000000000000000000047
:102990002508141B070B3D002B1507003E3D3E3D4F
:1029A0003D3E081605163D3F16023E16163D161111
:1029B0000E001524241B1E073D0E3D001E1216049A
:1029C0003A023C2F2F0A2C2307362101051D010056
:1029D00000020000330000000000073D3D3E3C398E
:1029E0003E3616333E303E2D3D16002C14001F237C
:1029F0003F041C3B062C001F260017133D172A001E
:102A00002508331B071D1F00250811071F1D1D006A
:102A10002032131A321C071D1E1D001C02120E0E3E
:102A20002528360829072E1F0025281E0034071FD9
:102A30002E2E00201B0524202E252627012E072FB1
:102A40001D2E1F2E2B282E252E222E1F2E1C2E191A
:102A50002E162E1D001C003F223F00003F0F073E98
:102A60000B093E1D013D26393C1E0439241D16006C
:102A70000B0C0000292033000000000000000000C3
:102A800007120E120025200D25001E29201B070607
:102A900016002B070012161206120A002508250739
:102AA00012001B201B07120E00250831070A121204
:102AB0000007120E1212161A161E16221626160ECF
:102AC00012001B1E291E03082E1D02082E1D0108C0
:102AD0002E1D000000000000000034010D223934DA
:102AE0000C283D19311E00150C37000000000000B5
:102AF00000000000000000000000000000000000D6
:102B0000001C2A2F121A1A2128161D2A2821121BEE
:102B10001D1B0818201A1B201B00001A0833160062
:102B200000173919391E392139151E1E1808351E8E
:102B300039111E1B002A282E1D1B202D1B000021D1
:102B40001B211A1B1A28231A0108051E1A03022921
:102B500003201E1E2A053A0736282C000000001A02
:102B60001D1E00201B1B1C2B201C0B0C0B001A0213
:102B700029000C1E1C32201C330025282508293969
:102B800000262425270C2836342810092011202857
:102B90003636352810170000363228173117272C03
:102BA0000B370C20363618360A08173633201736FE
:102BB00012203B2615202E002723262225210A0D30
:102BC0000D1B0D0B2322211B0A37000000002704D8
:102BD000272604262504250A040A0D00002723279A
:102BE0000426222604252125040A0A1B00002108A8
:102BF000100821220822230823202C2C000000008A
:102C0000001D2925001C1E292B1B24081720212804
:102C10001C072400011B09072A0020152526280C63
:102C200024202C2324172C25262838220834010C94
:102C300024221B00261B0008270C2438280C2329DB
:102C4000001B291B0821251B00091E2925241F0004
:102C50000D20252024202C251A002205333D2D1C73
:102C6000243C36393D0B0A3737003939000B292C03
:102C70000000000000000000000000000000000054
:102C8000002006360C280202360D20110605030529
:102C9000211B082404070718003601202606020419
:102CA000271B1B0718001B28000031073D180001D7
:102CB0003607391800201B1B26040000003D26277C
:102CC000283B00173B0C2E1D2300000000000000D5
:102CD000000005231F00341A142314230B3E102276
:102CE0000B210A003D203D201F3D200C203F162ACD
:102CF00023233309201F0E062812133611002F2418
:102D000000002723002800323213280E040020067A
:102D10003220203332281920200020200D320606D0
:102D2000072837343232283532040C0F2F0D0C2F80
:102D30002D3200003B033B030D20200C0F2F0C0D08
:102D40002F3E01231F3538013A393B370125201525
:102D500024252627012324232024242B0822203263
:102D600023252036230524242438302338242036F4
:102D7000322B0136012B041D132C2F1B06050733A4
:102D80000D000B00002721272620180126252018DA
:102D90000125030025282628092128222823281375
:102DA000202124283B0303002112121E083D0300AA
:102DB000352F12313B20202013123813132000042A
:102DC0002400130624000320132024212522262377
:102DD0002713002C002924282B0123282013172730
:102DE00024260825272A261417393B2425262400C3
:102DF000002508100825260826270827242F2F1F1E
:102E00003F0A3D3F00012014082B01003F3E2529C9
:102E1000212A02222A032629212A03222A04333CBA
:102E20002329252A04262A052729212A04222A05BE
:102E3000232A06012500263F270127040000000061
:102E40000000282927270121283620210114002BE2
:102E500028011301002424142521002028252826D8
:102E6000082921282614101D312E000000232123BB
:102E7000222018012221201801212B002808293B9B
:102E80000028002C2B2F2D002C082C2B1010002E8E
:102E9000082B2D082C082D00212A2C2D002C2C2C41
:102EA000042B2C2C10002C2C0026020000000034D7
:102EB0002900002C302D08170022262E0425211071
:102EC00004252E26002C042C0004002D372C26006F
:102ED0002531041D2D371D2500262C2731003D36B8
:102EE00025282728262833250408301720242427BE
:102EF0003E361D241D2F00250821083536393B009C
:102F0000073C0025083624081008381838003739DF
:102F10003A3B3D283E2835073C38380020242424FD
:102F200021382031252139203126213A0021010084
:102F30001E07380017241E0D0000000000000003CB
:102F40000000001B17301719171D170E2529360E04
:102F5000200C0E20120204001A1A0606282F04283C
:102F60000A082828003F2917002E0B291A280700D5
:102F70000000000000000000000000000000000051
:102F80000000000000000000000000000000000041
:102F90000000000000000000000000000000000031
:102FA0000000000000000000000000000000000021
:102FB0000000000000000000000000000000000011
:102FC0000000000000000000000000000000000001
:102FD00000000000000000000000000000000000F1
:102FE00000000000000000000000000000000000E1
:102FF00000000000000000000000000000000000D1
:1030000038000308040B00001207010536270016DC
:103010003F0C2E0100303F3F000F3F023E3F1700A4
:1030200030000300000000002C0C210017001425C4
:103030003F2502301F0C070A0D0000333D3B383F8F
:103040001E0012202A2A2011333F1D2D002F271287
:103050003F37110422010A1B2731180225252500BC
:103060000000000B2A00003F372E01000521200040
:1030700020332C12392A0003390000000B253008B8
:103080003E0100150B003900000208260233110E24
:1030900033050D0E2A050D0D03012D170B020F1020
:1030A0000C170F3631070B2D283F2D2D011E002D3B
:1030B0003B02132408262B0008080C0D2A3B203A5B
:1030C000073B153F06172B0F3608041F2B2B0C1838
:1030D00004042B062B042B2B061D201C0B07252478
:1030E00033002B2434082B3123312D322329301E79
:1030F000000C0720102D202E38103B0E050000007C
:1031000027291D252E05171630251C0606060A132D
:103110002D090A0F0A2A190C29140007080B2A2D59
:10312000283301342A0B00282721342B14141C07C0
:103130000A0B2A0B0F0B2D380B302F0F100C3F14DE
:10314000372008370B20083F070B0B0B2135181DC4
:103150000826001137200811010B2008370E201D0A
:10316000091D3C083C37090B37263C081D10202D53
:103170002D093C370B0937342D0912120E163F1753
:10318000170E3C3D3E13141C2E2D0C2A3B28080F15
:103190000A0A1A090C0F0A08140B0E2B0E1C130036
:1031A00014362B20120C102A3B20250E102E280836
:1031B0000136362B202E2E00102D2D2B121F1E31E6
:1031C000233706170F0002020F350202020B2D2DC6
:1031D000292B0B120A0A0821212A201512200A1F66
:1031E00008121200122D2A0B000D2C0821190E0FA7
:1031F000141515130E02140A101505110A0F3F209D
:103200001F203D070F342C171F0C0B1E07021E0733
:103210002C0025281D081B20283C2D1F183D1800B8
:10322000002225172A1E201E340907010B340734FB
:1032300000253834090A2202000E0B331E01200932
:103240003D090A392D090727081C0B390B220B34BD
:1032500007342234390025202934090A2202030ABE
:103260003602010000013E00082C2D081B392A05FA
:103270002426270626312F3A3A3505250E0E0F054E
:1032800021210E031E012530250C0D052021000EE5
:10329000082B2122070F2A0936101801010B2A2DAD
:1032A0000C000702003E000C0E0F34102738100CE3
:1032B0000E38270E2E3D3F002D2F202D2F00002DE4
:1032C0000D13141C2408262B280300080833283962
:1032D000000C100E370A0D1124010826110E330AB6
:1032E0000D1C0D073B153F1C282A213727270A0AEA
:1032F000083B37202F0A2737373737270027181181
:103300000E0F222037352A08202223202C3B0D1BAC
:10331000220D00260D0C0F00220F351E21062A3F1C
:10332000252519312009250907010B250C0B202A19
:10333000251B243434213528013421252811342C2F
:1033400033352C352534341B3434340F0A380B050F
:1033500008340909211B203E343408042A25282377
:1033600015201B0C1C2012112A2620270F36272778
:1033700003012D0B37372E303132333435363738A1
:10338000390C201B0E150007131B1F1E09120A38CB
:103390000B3938341C1F282201280E1F3E0836190D
:1033A000081E1F2F2F3E002F2F2120080320143727
:1033B000373720200B240734390038342F202808D1
:1033C0000B20281908382009340B0A392F200C1B30
:1033D00036151C07110A24383418010B2409210C56
:1033E0000F003D21062A1E192E1F0920092E2B072A
:1033F000010B0E34071C191E1F09200907010605C1
:103400002E202B2D2F2A1E281B291D2C3B0D3C3E28
:103410003D3434343434340A360B221C3C25082B1A
:103420000B200700390038340B1B211F201E0C30E5
:1034300009201F3E00311F3D2031311408000C2AA5
:103440003B203E0F202E22002E300337372819361E
:103450002E213618223637360B202E0922202E0A2E
:1034600022242408200A360822080A09362A3B00AA
:10347000262131002F320F1E3003161B2A0C3C1F51
:103480002224191B0A11002A1D201D05240324359E
:1034900031132408073B2E0E131A17220C0C2A2274
:1034A000220E02033000032E2E0A2B081C210A28AC
:1034B00039003A2E302E202708222E010F1000222C
:1034C000241C0806352A2834342A001C2002221421
:1034D000281522181F3F0B240B001B0F0210291167
:1034E0003F2A2A13280B2A341C000F001120101128
:1034F0000A0A0A2020210100000000000A3F3F3E86
:103500003E030030242430252008080124002435FF
:10351000013D2B372D01281E330E1D0E37372D0090
:103520001B000E101E01181129181C363F3C2D0AD5
:103530003910300F2F2E2B0F282A0E3B033F372D2B
:10354000282A0E0E3B280A0E273F382737080D1968
:103550000F1E0E1213200C3F3F0D0D1331290D0DC0
:103560001A333F3F12030C2E0D0D0F140501040FEB
:10357000200809200F0E122E0D0D00000000000083
:10358000000000000000003D050806191B1E131373
:1035900016281B07282F36201C1336212A223235E5
:1035A000282A243235350119333524010206040551
:1035B000010000101F1F00393628383F363F3709F9
:1035C0003734200132200B3726323F37343401198B
:1035D00033343F0D24202123200A3910300F2F22AD
:1035E0003F272D082C0020252B0132202A022B08F2
:1035F0002B32152220330900092238363335333473
:103600002638101203100737262010082133280609
:103610002B10080B26240B3F1320222026200808FD
:103620000B3A25060B3A06201B0B1C1C203F2018CA
:10363000001A212A282C3A28082D37372E27202E29
:103640002808373F200B002F3F0B020626182508BD
:10365000250B210508100B1C162520260B0D120525
:103660000104190D0D012E282628083F10281D21C0
:103670000A390B220B390B000B2F201E0B240B20B9
:1036800003022C252C0F0F2104080F0F250E3027C5
:10369000000000000000000000000000000000002A
:1036A000000020030E140213030D3100000000007F
:1036B000000000000000000000000000000000000A
:1036C00000000000000000000000000000000000FA
:1036D00000000000000000000000000000000000EA
:1036E00000000000000000000000000000000000DA
:1039800025080603073A0A002A250405070D0A0D33
:103990000A0A0D371034100A2E10310D10100A10BB
:1039A000003D000424240306070A3D0A0006043AE9
:1039B000023C2F2F0A2C2307362101051D01000090
:1039C00002000001012D002B20060010183F181CDA
:1039D000001F39000000070A0A0D38350D32102F7C
:1039E0000D2C0D290A10002815001F233F041C3B35
:1039F000062C001F260017133D172A100601000B86
:103A00002508213607222223002508120723222217
:103A10000020271416271C07222422003606210026
:103A200006060A3D01082D0025281D08210732231E
:103A30000025281E081736203225350734220001BC
:103A400032073223323130322F322E322B322832AB
:103A50002532223222001C0723323200203607335F
:103A60000006003F223F00003F0F073E0B092124C4
:103A7000272A10131E2D01341000002037373A2357
:103A8000070E070E0025200C2500061C1D07080F39
:103A9000002A2D070E0F0E080E0B00250825070E15
:103AA000001D28201D070E0700250831070B0E0EEC
:103AB00000070E070E0E0F100F130F160F190F072A
:103AC0000E001D061C00062403082D02082D0A0DF9
:103AD00034361D39360F3D192B0015100601000B29
:103AE0000C3E1D013D26393C1E0439241D130026C1
:103AF000270524352D0025043838003020182022D1
:103B0000023A2928162123080D20292320370000F6
:103B1000290828320000313C353C3B3C213C303BFD
:103B20003B33082A3B3C083B3700292825213B3BF7
:103B300037200C2300002137213C373C281B3C0157
:103B40000838103C3A12103A203B3B1F0039100D48
:103B500003363B10292000341000002037373A2369
:103B6000203A020D02232128323B3612100D102D6F
:103B700004073A3605213A1B30283F000A20253A2F
:103B8000082526273B203A2A21280F1C20103A1C02
:103B90001200110F3E122A1939251B201C3B221C32
:103BA00013153B273526362537383C3C0A3C39353A
:103BB00036370A3822000000000000012E270427B3
:103BC0002604262504253804383C330027352704ED
:103BD000263626042537250438380A3020182022B6
:103BE0000C1C110E3C2A1C021D1D153F3A20363BB1
:103BF0003C3F3B3C3F3D3B3B3E313B35203E051689
:103C00002F251B25082B2024241B240016310021DE
:103C1000073600201B090739000114350031321026
:103C20001B3335370D34330838250825260826235D
:103C3000082338242728270D3024340D243A370D43
:103C40003038321B0821241B1B25242523000B247C
:103C5000242025203A252425250017262620253A2C
:103C6000263A291C24360A201B1B252826281B3807
:103C700039042D39223C3B21003F1233103A000019
:103C80001B200A2A0C2802062A0420110A09070907
:103C900021050D240B082B0734002A0320280A06CF
:103CA00027082105050734000528000033073F34A5
:103CB000000138073B340020050528040001013DC0
:103CC0002627283B120000123A3B1C0020231F101D
:103CD0002F3F1E0F3D1E0F3D3E3F2A161D1B203D50
:103CE0000E0124240C070F203E2A232109210E3E19
:103CF0003B0F3E1E203F0F26102032141100000003
:103D00003A0027002C2C2F280B14002E162C2E2EB8
:103D1000302C28162E2E00020D3C222E2D2D0D2D7E
:103D2000221D232C060619312D2D2D2D00150000E6
:103D3000003F200138012E020D3C220D2E2E223B89
:103D400001241F3B3E013F0023272704222626048F
:103D50002125253D012C16280000090A24072000F2
:103D60002A25081D203E0B220A360B243E310B006B
:103D7000010727002C012024243C010217001027F2
:103D80000A002721272620180126252018012500B2
:103D90000625201726281921201D2228102021243D
:103DA000280600211C1C1D080924212008201F1E94
:103DB0001C211E1E1E1E2108220021081008212180
:103DC00021223D001C3510103D20212408201F1EFB
:103DD0001E241E1E251E1E26102024060018212427
:103DE0003C242400272521012605102E3D25243EB4
:103DF000201C2425082108312400213D38073515D1
:103E00000403350B35321329002508100825260830
:103E1000262708272407073A00282D242234263392
:103E200000352725342233272704353A043B213433
:103E30002633272704353A3A043B3B253421333ACD
:103E40002604353B25362739172B17212011222828
:103E50001C2021240124382D24373521180122214A
:103E6000392B23061C1C3925002C2B392100243C1E
:103E7000390024213B37003C083F0000021F3F0A65
:103E80003D3F040023212322201801222120180174
:103E900021022A00210810082122082223082300D9
:103EA000123F38373A390038083837102F003B08AE
:103EB000373927380800213F000034001A0028262F
:103EC000390826042625042522263B042521101323
:103ED000253B260028042827042739022826250602
:103EE00037272527373C29072D12200027073D3388
:103EF0003E35343D2B00203E193F3E3500343F33E4
:103F0000062827250827200D262827282527202BA7
:103F10002504081F27042726042625042528102702
:103F2000202B2821242400000107260025081C241A
:103F30000008100822182200212324272001282805
:103F40001F0726222200202424242122201B252191
:103F500023201B2621240021010006072200012422
:103F6000060D00000000000001001D2D3B3F203F1A
:103F7000193E3F3F2133203C3D3F2E343E20331A33
:103F80000000000000000000000000000000000031
:103F90000000000000000000000000000000000021
:103FA0000000000000000000000000000000000011
:103FB0000000000000000000000000000000000001
:00000001FF
